:10000000D2C008C2E3C0E2C0E1C034C3DFC0DEC07A
:10001000DDC0DCC047C3DAC0D9C0D8C0D7C0005EDD
:10002000BCE2613FDD83C29C7E20A3FD1F419DC3D6
:10003000217FFCA2401E5F01E3BD3E6082DC237D88
:100040009FC1421CFEA0E1BF5D0380DE3C62BEE0BA
:10005000025CDF81633D7C22C09E1D43A1FF4618E8
:10006000FAA427799BC584DA3866E5BB5907DB8596
:100070006739BAE406581947A5FB7826C49A653B48
:10008000D987045AB8E6A7F91B45C6987A24F8A67A
:10009000441A99C7257B3A6486D85B05E7B98CD2A8
:1000A000306EEDB3510F4E10F2AC2F7193CD114F56
:1000B000ADF3702ECC92D38D6F31B2EC0E50AFF108
:1000C000134DCE90722C6D33D18F0C52B0EE326C3A
:1000D0008ED0530DEFB1F0AE4C1291CF2D73CA9468
:1000E0007628ABF517490856B4EA6937D58B570916
:1000F000EBB536688AD495CB2977F4AA4816E9B7C8
:10010000550B88D6346A2B7597C94A14F6A8742AF9
:10011000C896154BA9F7B6E80A54D7896B354445FC
:100120004C4C303041433034353139353032334343
:100130004E30434446353737323433383635513212
:100140003746324130353D94FFFFFFFFFFFFFFFF91
:10015000FFFFFFFFFFFFFFFFFFFFFFFFFFFFFFFFAF
:10016000FFFFFFFFFFFFFFFFFFFFFFFFFFFFFFFF9F
:10017000FFFFFFFFFFFFFFFFFFFFFFFFFFFFFFFF8F
:10018000FFFFFFFFFFFFFFFFFFFFFFFFFFFFFFFF7F
:10019000FFFFFFFFFFFFFFFFFFFFFFFFFFFF095212
:1001A0008DED650000EF11241FBECFE5D2E0DEBF6C
:1001B000CDBF10E0A0E6B0E0E6EBF7E002C00590AE
:1001C0000D92A637B107D9F799D2F3C219CF2FEF05
:1001D000260F662389F0DC01280F392F311D2F5F90
:1001E0003F4F80E0ED91E827F0E0E25EFF4F849121
:1001F000A217B307B9F7089580E00895E0E6F0E0AC
:10020000608986859785C7C2CF93DF93C0E6D0E02B
:100210008E859F8524E028838D839E8320E8281B7C
:100220002F8322E028871A8619861A821B82ABD276
:100230008C83809581708D87DF91CF9108950F9386
:100240001F93CF93DF9300D01F92CDB7DEB700E6A8
:1002500010E0F8018385898386858A8387858B836F
:1002600063E0CE010196B3DFF801808B94E09083C8
:1002700020E730E03683258391E09783108624E0E1
:1002800031E03287218712821382848380958170C6
:1002900085870F900F900F90DF91CF911F910F9155
:1002A00008950F931F93CF93DF9300D000D0CDB765
:1002B000DEB700E610E0F8018385898386858A83AE
:1002C00087858B8380898C8364E0CE0101967FDFF4
:1002D000F801818B84E0808380E790E096838583BA
:1002E00081E0878310868EEF90E09287818712826B
:1002F0001382808984838095817085870F900F9009
:100300000F900F90DF91CF911F910F9108958091E1
:100310006B00833309F45DC0F0F18C3C09F1803F40
:1003200009F077C080916C00882309F451C083E004
:10033000809360008EE690E0909366008093650065
:1003400082E0809367008FE191E090936A00809350
:100350006900109262001092630010926400089588
:1003600081E080936C0093E0909360002BE630E096
:1003700030936600209365008093670087E891E0E2
:1003800090936A008093690010926200109263005B
:100390001092640008958F30D9F580916C00882305
:1003A000B9F083E0809360002EE630E03093660081
:1003B000209365008093670081E591E090936A0047
:1003C00080936900109262001092630010926400A2
:1003D000089584E080936000EEE9F1E0F093660018
:1003E000E093650088E08093670081E08093680077
:1003F00010926A00109269001092620010926300DD
:10040000E491E0936400E095E170E0936D0008955D
:10041000089508951F920F920FB60F921124EF9234
:10042000FF920F931F932F933F934F935F936F937D
:100430007F938F939F93AF93BF93CF93DF93EF936C
:10044000FF9380916100D0E412E008ECEE24E39485
:10045000F12C23C0C0E090916D00992309F499C05C
:10046000C298BA9A10926D0090916000933009F48E
:1004700095C0943009F462C09130E9F581113BC018
:1004800010936000C298BA9A09BD8AE18A95F1F783
:1004900000C08C2F0AB606FE34C0DABFC1E081115D
:1004A000D9CF80916000833081F3843071F3813043
:1004B00061F7E6CFE091620081E08E0F90916400D9
:1004C0002091650030916600E20FF32FF11D9083BB
:1004D0001092640090916700891398C01092600098
:1004E0008093620010926300E0916900F0916A00CD
:1004F000309709F0099512BE13BF8C2F0AB606FC7F
:10050000CCCF86B382FB882780F980936100FF916E
:10051000EF91DF91CF91BF91AF919F918F917F919B
:100520006F915F914F913F912F911F910F91FF908C
:10053000EF900F900FBE0F901F901895882309F42D
:10054000A4CF80E58A95F1F7809163008F5F8830B2
:1005500009F449C090916000992379F020916400DA
:1005600030E0082E02C0359527950A94E2F72095D1
:1005700030952170332720936D0080936300BA98E3
:10058000C29A80916000882309F4AECF12BE13BFD7
:10059000B4CF90916000933009F06BCF882309F4B9
:1005A00074CF8AE18A95F1F700C080916300B29917
:1005B0000EC08F5F90916000883009F47BCF8093EC
:1005C0006300992309F490CF12BE13BF96CF909188
:1005D00064009701082E01C0220F0A94EAF7922BBB
:1005E00090936400E6CFE0916200EF5F8091670036
:1005F000E81312C01092600080E080936300BA9804
:10060000C29A809160008111C1CF6ECF909160003D
:100610008093620080E0D3CFE09362008091680015
:100620008130E1F078F0823059F48091650090914A
:1006300066008E0F911DA7D08093640080E08ACF62
:1006400080E088CF8091650090916600E80FF92FD7
:10065000F11D80818093640080E07CCF80916500F3
:1006600090916600E80FF92FF11DE491E09364008A
:1006700080E070CF1F920F920FB60F9211248F93CC
:1006800013BE80E188BF80916100811105C081E0C7
:100690008093600010926C008F910F900FBE0F90AE
:1006A0001F9018951F920F920FB60F9211248F93DF
:1006B0009F93809160008230D1F4BA98C29A83E00F
:1006C000809360008BE690E09093660080936500D5
:1006D00081E08093670087E891E090936A008093BF
:1006E00069001092620010926300109264009F9162
:1006F0008F910F900FBE0F901F901895479A80B55D
:100700008B6080BD17BA8FEF88BBC298BA9A90E011
:1007100080E039D08F3F51F18AE18A95F1F700C02E
:10072000BA98C29A89B7826189BF19BC85B78D7F93
:10073000816085BF8BB780648BBF80E48ABF86B33E
:1007400082FB882780F980936100789485B7877E43
:1007500085BF85B7846885BF8B7F85BF85B780627D
:1007600085BF889585B78F7D85BFF3CFD0E0C0E08A
:10077000FE01E25EFE4F6491CE010DD02196C0389D
:10078000D105B1F7CDCFE199FECF9FBB8EBBE09AEB
:1007900099278DB30895262FE199FECF1CBA9FBBF0
:1007A0008EBB2DBB0FB6F894E29AE19A0FBE01966C
:0607B0000895F894FFCF4C
:1007B6000001000000000000000000000000000032
:0607C6000000000000002D
:00000001FF
